{
  "_format": "hh-sol-artifact-1",
  "contractName": "FlowerNFT",
  "sourceName": "contracts/FlowerNft.sol",
  "abi": [
    {
      "inputs": [
        {
          "internalType": "string",
          "name": "baseURI",
          "type": "string"
        }
      ],
      "stateMutability": "nonpayable",
      "type": "constructor"
    },
    {
      "inputs": [
        {
          "internalType": "address",
          "name": "sender",
          "type": "address"
        },
        {
          "internalType": "uint256",
          "name": "tokenId",
          "type": "uint256"
        },
        {
          "internalType": "address",
          "name": "owner",
          "type": "address"
        }
      ],
      "name": "ERC721IncorrectOwner",
      "type": "error"
    },
    {
      "inputs": [
        {
          "internalType": "address",
          "name": "operator",
          "type": "address"
        },
        {
          "internalType": "uint256",
          "name": "tokenId",
          "type": "uint256"
        }
      ],
      "name": "ERC721InsufficientApproval",
      "type": "error"
    },
    {
      "inputs": [
        {
          "internalType": "address",
          "name": "approver",
          "type": "address"
        }
      ],
      "name": "ERC721InvalidApprover",
      "type": "error"
    },
    {
      "inputs": [
        {
          "internalType": "address",
          "name": "operator",
          "type": "address"
        }
      ],
      "name": "ERC721InvalidOperator",
      "type": "error"
    },
    {
      "inputs": [
        {
          "internalType": "address",
          "name": "owner",
          "type": "address"
        }
      ],
      "name": "ERC721InvalidOwner",
      "type": "error"
    },
    {
      "inputs": [
        {
          "internalType": "address",
          "name": "receiver",
          "type": "address"
        }
      ],
      "name": "ERC721InvalidReceiver",
      "type": "error"
    },
    {
      "inputs": [
        {
          "internalType": "address",
          "name": "sender",
          "type": "address"
        }
      ],
      "name": "ERC721InvalidSender",
      "type": "error"
    },
    {
      "inputs": [
        {
          "internalType": "uint256",
          "name": "tokenId",
          "type": "uint256"
        }
      ],
      "name": "ERC721NonexistentToken",
      "type": "error"
    },
    {
      "inputs": [
        {
          "internalType": "address",
          "name": "owner",
          "type": "address"
        }
      ],
      "name": "OwnableInvalidOwner",
      "type": "error"
    },
    {
      "inputs": [
        {
          "internalType": "address",
          "name": "account",
          "type": "address"
        }
      ],
      "name": "OwnableUnauthorizedAccount",
      "type": "error"
    },
    {
      "anonymous": false,
      "inputs": [
        {
          "indexed": true,
          "internalType": "address",
          "name": "owner",
          "type": "address"
        },
        {
          "indexed": true,
          "internalType": "address",
          "name": "approved",
          "type": "address"
        },
        {
          "indexed": true,
          "internalType": "uint256",
          "name": "tokenId",
          "type": "uint256"
        }
      ],
      "name": "Approval",
      "type": "event"
    },
    {
      "anonymous": false,
      "inputs": [
        {
          "indexed": true,
          "internalType": "address",
          "name": "owner",
          "type": "address"
        },
        {
          "indexed": true,
          "internalType": "address",
          "name": "operator",
          "type": "address"
        },
        {
          "indexed": false,
          "internalType": "bool",
          "name": "approved",
          "type": "bool"
        }
      ],
      "name": "ApprovalForAll",
      "type": "event"
    },
    {
      "anonymous": false,
      "inputs": [
        {
          "indexed": false,
          "internalType": "uint256",
          "name": "_fromTokenId",
          "type": "uint256"
        },
        {
          "indexed": false,
          "internalType": "uint256",
          "name": "_toTokenId",
          "type": "uint256"
        }
      ],
      "name": "BatchMetadataUpdate",
      "type": "event"
    },
    {
      "anonymous": false,
      "inputs": [
        {
          "indexed": false,
          "internalType": "uint256",
          "name": "_tokenId",
          "type": "uint256"
        }
      ],
      "name": "MetadataUpdate",
      "type": "event"
    },
    {
      "anonymous": false,
      "inputs": [
        {
          "indexed": true,
          "internalType": "address",
          "name": "previousOwner",
          "type": "address"
        },
        {
          "indexed": true,
          "internalType": "address",
          "name": "newOwner",
          "type": "address"
        }
      ],
      "name": "OwnershipTransferred",
      "type": "event"
    },
    {
      "anonymous": false,
      "inputs": [
        {
          "indexed": true,
          "internalType": "address",
          "name": "from",
          "type": "address"
        },
        {
          "indexed": true,
          "internalType": "address",
          "name": "to",
          "type": "address"
        },
        {
          "indexed": true,
          "internalType": "uint256",
          "name": "tokenId",
          "type": "uint256"
        }
      ],
      "name": "Transfer",
      "type": "event"
    },
    {
      "inputs": [
        {
          "internalType": "address",
          "name": "to",
          "type": "address"
        },
        {
          "internalType": "uint256",
          "name": "tokenId",
          "type": "uint256"
        }
      ],
      "name": "approve",
      "outputs": [],
      "stateMutability": "nonpayable",
      "type": "function"
    },
    {
      "inputs": [
        {
          "internalType": "address",
          "name": "owner",
          "type": "address"
        }
      ],
      "name": "balanceOf",
      "outputs": [
        {
          "internalType": "uint256",
          "name": "",
          "type": "uint256"
        }
      ],
      "stateMutability": "view",
      "type": "function"
    },
    {
      "inputs": [
        {
          "internalType": "uint256",
          "name": "tokenId",
          "type": "uint256"
        }
      ],
      "name": "getApproved",
      "outputs": [
        {
          "internalType": "address",
          "name": "",
          "type": "address"
        }
      ],
      "stateMutability": "view",
      "type": "function"
    },
    {
      "inputs": [
        {
          "internalType": "address",
          "name": "owner",
          "type": "address"
        },
        {
          "internalType": "address",
          "name": "operator",
          "type": "address"
        }
      ],
      "name": "isApprovedForAll",
      "outputs": [
        {
          "internalType": "bool",
          "name": "",
          "type": "bool"
        }
      ],
      "stateMutability": "view",
      "type": "function"
    },
    {
      "inputs": [],
      "name": "mint",
      "outputs": [],
      "stateMutability": "nonpayable",
      "type": "function"
    },
    {
      "inputs": [],
      "name": "name",
      "outputs": [
        {
          "internalType": "string",
          "name": "",
          "type": "string"
        }
      ],
      "stateMutability": "view",
      "type": "function"
    },
    {
      "inputs": [],
      "name": "owner",
      "outputs": [
        {
          "internalType": "address",
          "name": "",
          "type": "address"
        }
      ],
      "stateMutability": "view",
      "type": "function"
    },
    {
      "inputs": [
        {
          "internalType": "uint256",
          "name": "tokenId",
          "type": "uint256"
        }
      ],
      "name": "ownerOf",
      "outputs": [
        {
          "internalType": "address",
          "name": "",
          "type": "address"
        }
      ],
      "stateMutability": "view",
      "type": "function"
    },
    {
      "inputs": [],
      "name": "renounceOwnership",
      "outputs": [],
      "stateMutability": "nonpayable",
      "type": "function"
    },
    {
      "inputs": [
        {
          "internalType": "address",
          "name": "from",
          "type": "address"
        },
        {
          "internalType": "address",
          "name": "to",
          "type": "address"
        },
        {
          "internalType": "uint256",
          "name": "tokenId",
          "type": "uint256"
        }
      ],
      "name": "safeTransferFrom",
      "outputs": [],
      "stateMutability": "nonpayable",
      "type": "function"
    },
    {
      "inputs": [
        {
          "internalType": "address",
          "name": "from",
          "type": "address"
        },
        {
          "internalType": "address",
          "name": "to",
          "type": "address"
        },
        {
          "internalType": "uint256",
          "name": "tokenId",
          "type": "uint256"
        },
        {
          "internalType": "bytes",
          "name": "data",
          "type": "bytes"
        }
      ],
      "name": "safeTransferFrom",
      "outputs": [],
      "stateMutability": "nonpayable",
      "type": "function"
    },
    {
      "inputs": [
        {
          "internalType": "address",
          "name": "operator",
          "type": "address"
        },
        {
          "internalType": "bool",
          "name": "approved",
          "type": "bool"
        }
      ],
      "name": "setApprovalForAll",
      "outputs": [],
      "stateMutability": "nonpayable",
      "type": "function"
    },
    {
      "inputs": [
        {
          "internalType": "bytes4",
          "name": "interfaceId",
          "type": "bytes4"
        }
      ],
      "name": "supportsInterface",
      "outputs": [
        {
          "internalType": "bool",
          "name": "",
          "type": "bool"
        }
      ],
      "stateMutability": "view",
      "type": "function"
    },
    {
      "inputs": [],
      "name": "symbol",
      "outputs": [
        {
          "internalType": "string",
          "name": "",
          "type": "string"
        }
      ],
      "stateMutability": "view",
      "type": "function"
    },
    {
      "inputs": [
        {
          "internalType": "uint256",
          "name": "tokenId",
          "type": "uint256"
        }
      ],
      "name": "tokenURI",
      "outputs": [
        {
          "internalType": "string",
          "name": "",
          "type": "string"
        }
      ],
      "stateMutability": "view",
      "type": "function"
    },
    {
      "inputs": [
        {
          "internalType": "address",
          "name": "from",
          "type": "address"
        },
        {
          "internalType": "address",
          "name": "to",
          "type": "address"
        },
        {
          "internalType": "uint256",
          "name": "tokenId",
          "type": "uint256"
        }
      ],
      "name": "transferFrom",
      "outputs": [],
      "stateMutability": "nonpayable",
      "type": "function"
    },
    {
      "inputs": [
        {
          "internalType": "address",
          "name": "newOwner",
          "type": "address"
        }
      ],
      "name": "transferOwnership",
      "outputs": [],
      "stateMutability": "nonpayable",
      "type": "function"
    }
  ],
  "bytecode": "0x60806040523462000037576200001e62000018620001ab565b62000290565b620000286200003d565b61229c620007d8823961229c90f35b62000043565b60405190565b600080fd5b601f801991011690565b634e487b7160e01b600052604160045260246000fd5b90620000749062000048565b810190811060018060401b038211176200008d57604052565b62000052565b90620000aa620000a26200003d565b928362000068565b565b600080fd5b600080fd5b600080fd5b600080fd5b60018060401b038111620000df57620000db60209162000048565b0190565b62000052565b60005b838110620000fa575050906000910152565b806020918301518185015201620000e8565b90929192620001256200011f82620000c0565b62000093565b9381855260208501908284011162000144576200014292620000e5565b565b620000bb565b9080601f830112156200016b5781602062000168935191016200010c565b90565b620000b6565b90602082820312620001a557600082015160018060401b0381116200019f576200019c92016200014a565b90565b620000b1565b620000ac565b620001ce62002a7480380380620001c28162000093565b92833981019062000171565b90565b90620001e7620001e183620000c0565b62000093565b918252565b60007f466c6f7765724e46540000000000000000000000000000000000000000000000910152565b620002206009620001d1565b906200022f60208301620001ec565b565b6200023b62000214565b90565b60007f466c774e46540000000000000000000000000000000000000000000000000000910152565b620002726006620001d1565b9062000281602083016200023e565b565b6200028d62000266565b90565b620002c490620002be620002a362000684565b620002ad62000231565b620002b762000283565b916200033c565b62000693565b565b90565b60018060a01b031690565b90565b620002f0620002ea620002f692620002c6565b620002d4565b620002c9565b90565b6200030490620002d7565b90565b6200031290620002c9565b90565b620003209062000307565b9052565b91906200033a9060006020850194019062000315565b565b916200034891620003b2565b806200036a620003636200035d6000620002f9565b62000307565b9162000307565b146200037d576200037b906200076a565b565b620003ae6200038d6000620002f9565b620003976200003d565b918291631e4fbdf760e01b83526004830162000324565b0390fd5b90620003be9162000663565b565b5190565b634e487b7160e01b600052602260045260246000fd5b9060016002830492168015620003fd575b6020831014620003f757565b620003c4565b91607f1691620003eb565b600052602060002090565b601f602091010490565b1b90565b91906008620004419102916200043a600019846200041d565b926200041d565b9181191691161790565b90565b62000467620004616200046d926200044b565b620002d4565b6200044b565b90565b90565b91906200048e6200048862000497936200044e565b62000470565b90835462000421565b9055565b600090565b620004b691620004af6200049b565b9162000473565b565b5b818110620004c5575050565b80620004d56000600193620004a0565b01620004b9565b9190601f8111620004ed575b505050565b620004fc620005279362000408565b9060206200050a8462000413565b8301931062000530575b6200051f9062000413565b0190620004b8565b388080620004e8565b91506200051f8192905062000514565b1c90565b9062000557906000199060080262000540565b191690565b81620005689162000544565b906002021790565b906200057c81620003c0565b9060018060401b0382116200064f57620005a3826200059c8554620003da565b85620004dc565b602090601f8311600114620005dd57918091620005cb93600092620005d0575b50506200055c565b90555b565b90915001513880620005c3565b601f19831691620005ee8562000408565b9260005b818110620006365750916002939185600196941062000619575b50505002019055620005ce565b6200062b910151601f84169062000544565b90553880806200060c565b91936020600181928787015181550195019201620005f2565b62000052565b90620006619162000570565b565b90620006756200067d92600062000655565b600162000655565b565b600090565b6200068e6200067f565b503390565b620006a090600962000655565b565b60001c90565b60018060a01b031690565b620006c2620006c891620006a2565b620006a8565b90565b620006d79054620006b3565b90565b60001b90565b90620006f360018060a01b0391620006da565b9181191691161790565b62000716620007106200071c92620002c9565b620002d4565b620002c9565b90565b6200072a90620006fd565b90565b62000738906200071f565b90565b90565b90620007586200075262000760926200072d565b6200073b565b8254620006e0565b9055565b60000190565b620007766007620006cb565b620007838260076200073e565b90620007bb620007b47f8be0079c531659141344cd1fd0a4f28419497f9722a3daafe3b4186f6b6457e0936200072d565b916200072d565b91620007c66200003d565b80620007d28162000764565b0390a356fe60806040526004361015610013575b6108ee565b61001e60003561012d565b806301ffc9a71461012857806306fdde0314610123578063081812fc1461011e578063095ea7b3146101195780631249c58b1461011457806323b872dd1461010f57806342842e0e1461010a5780636352211e1461010557806370a0823114610100578063715018a6146100fb5780638da5cb5b146100f657806395d89b41146100f1578063a22cb465146100ec578063b88d4fde146100e7578063c87b56dd146100e2578063e985e9c5146100dd5763f2fde38b0361000e576108bb565b610885565b610822565b6107eb565b610671565b6105ea565b6105b5565b610582565b61054d565b6104d6565b6104a2565b61046e565b610400565b6103cc565b61033f565b61028a565b6101bf565b60e01c90565b60405190565b600080fd5b600080fd5b600080fd5b63ffffffff60e01b1690565b61015d81610148565b0361016457565b600080fd5b9050359061017682610154565b565b906020828203126101925761018f91600001610169565b90565b61013e565b151590565b6101a590610197565b9052565b91906101bd9060006020850194019061019c565b565b346101ef576101eb6101da6101d5366004610178565b61092d565b6101e2610133565b918291826101a9565b0390f35b610139565b60009103126101ff57565b61013e565b5190565b60209181520190565b60005b838110610225575050906000910152565b806020918301518185015201610214565b601f801991011690565b61025f61026860209361026d9361025681610204565b93848093610208565b95869101610211565b610236565b0190565b6102879160208201916000818403910152610240565b90565b346102ba5761029a3660046101f4565b6102b66102a5610a90565b6102ad610133565b91829182610271565b0390f35b610139565b90565b6102cb816102bf565b036102d257565b600080fd5b905035906102e4826102c2565b565b90602082820312610300576102fd916000016102d7565b90565b61013e565b60018060a01b031690565b61031990610305565b90565b61032590610310565b9052565b919061033d9060006020850194019061031c565b565b3461036f5761036b61035a6103553660046102e6565b610aab565b610362610133565b91829182610329565b0390f35b610139565b61037d81610310565b0361038457565b600080fd5b9050359061039682610374565b565b91906040838203126103c157806103b56103be9260008601610389565b936020016102d7565b90565b61013e565b60000190565b346103fb576103e56103df366004610398565b90610aca565b6103ed610133565b806103f7816103c6565b0390f35b610139565b3461042e576104103660046101f4565b610418610ae3565b610420610133565b8061042a816103c6565b0390f35b610139565b90916060828403126104695761046661044f8460008501610389565b9361045d8160208601610389565b936040016102d7565b90565b61013e565b3461049d57610487610481366004610433565b91610b7a565b61048f610133565b80610499816103c6565b0390f35b610139565b346104d1576104bb6104b5366004610433565b91610c77565b6104c3610133565b806104cd816103c6565b0390f35b610139565b34610506576105026104f16104ec3660046102e6565b610c8d565b6104f9610133565b91829182610329565b0390f35b610139565b906020828203126105255761052291600001610389565b90565b61013e565b610533906102bf565b9052565b919061054b9060006020850194019061052a565b565b3461057d5761057961056861056336600461050b565b610d1d565b610570610133565b91829182610537565b0390f35b610139565b346105b0576105923660046101f4565b61059a610db2565b6105a2610133565b806105ac816103c6565b0390f35b610139565b346105e5576105c53660046101f4565b6105e16105d0610de8565b6105d8610133565b91829182610329565b0390f35b610139565b3461061a576105fa3660046101f4565b610616610605610dfe565b61060d610133565b91829182610271565b0390f35b610139565b61062881610197565b0361062f57565b600080fd5b905035906106418261061f565b565b919060408382031261066c57806106606106699260008601610389565b93602001610634565b90565b61013e565b346106a05761068a610684366004610643565b90610e14565b610692610133565b8061069c816103c6565b0390f35b610139565b600080fd5b600080fd5b634e487b7160e01b600052604160045260246000fd5b906106cf90610236565b810190811067ffffffffffffffff8211176106e957604052565b6106af565b906107016106fa610133565b92836106c5565b565b67ffffffffffffffff81116107215761071d602091610236565b0190565b6106af565b90826000939282370152565b9092919261074761074282610703565b6106ee565b938185526020850190828401116107635761076192610726565b565b6106aa565b9080601f830112156107865781602061078393359101610732565b90565b6106a5565b906080828203126107e6576107a38160008401610389565b926107b18260208501610389565b926107bf83604083016102d7565b92606082013567ffffffffffffffff81116107e1576107de9201610768565b90565b610143565b61013e565b3461081d576108076107fe36600461078b565b92919091610e2a565b61080f610133565b80610819816103c6565b0390f35b610139565b346108525761084e61083d6108383660046102e6565b610ef0565b610845610133565b91829182610271565b0390f35b610139565b9190604083820312610880578061087461087d9260008601610389565b93602001610389565b90565b61013e565b346108b6576108b26108a161089b366004610857565b90610fba565b6108a9610133565b918291826101a9565b0390f35b610139565b346108e9576108d36108ce36600461050b565b611050565b6108db610133565b806108e5816103c6565b0390f35b610139565b600080fd5b600090565b90565b60e01b90565b61091561091061091a926108f8565b6108fb565b610148565b90565b61092a6349064906610901565b90565b6109356108f3565b508061095061094a61094561091d565b610148565b91610148565b1490811561095d575b5090565b610967915061105b565b38610959565b606090565b634e487b7160e01b600052602260045260246000fd5b90600160028304921680156109a8575b60208310146109a357565b610972565b91607f1691610998565b60209181520190565b600052602060002090565b90600092918054906109e16109da83610988565b80946109b2565b91600181169081600014610a3a57506001146109fd575b505050565b610a0a91929394506109bb565b916000925b818410610a2257505001903880806109f8565b60018160209295939554848601520191019290610a0f565b92949550505060ff19168252151560200201903880806109f8565b90610a5f916109c6565b90565b90610a82610a7b92610a72610133565b93848092610a55565b03836106c5565b565b610a8d90610a62565b90565b610a9861096d565b50610aa36000610a84565b90565b600090565b610ac790610ab7610aa6565b50610ac1816110c3565b50611155565b90565b90610ade9190610ad8611174565b91611181565b565b90565b610af5610af06008610ae0565b6111fe565b610b17610b0a610b056008610ae0565b61122a565b610b12611174565b611242565b565b90565b90565b610b33610b2e610b3892610b19565b610b1c565b610305565b90565b610b4490610b1f565b90565b604090610b71610b789496959396610b676060840198600085019061031c565b602083019061052a565b019061031c565b565b919080610b98610b92610b8d6000610b3b565b610310565b91610310565b14610bf657610bb09082610baa611174565b916112a4565b9182610bc4610bbe83610310565b91610310565b03610bce57505050565b610bf2909192610bdc610133565b9384936364283d7b60e01b855260048501610b47565b0390fd5b610c21610c036000610b3b565b610c0b610133565b918291633250574960e11b835260048301610329565b0390fd5b67ffffffffffffffff8111610c4357610c3f602091610236565b0190565b6106af565b90610c5a610c5583610c25565b6106ee565b918252565b610c696000610c48565b90565b610c74610c5f565b90565b91610c8b9291610c85610c6c565b92610e2a565b565b610c9f90610c99610aa6565b506110c3565b90565b600090565b610cbb610cb6610cc092610305565b610b1c565b610305565b90565b610ccc90610ca7565b90565b610cd890610cc3565b90565b90610ce590610ccf565b600052602052604060002090565b60001c90565b90565b610d08610d0d91610cf3565b610cf9565b90565b610d1a9054610cfc565b90565b610d25610ca2565b5080610d42610d3c610d376000610b3b565b610310565b91610310565b14610d5d57610d55610d5a916003610cdb565b610d10565b90565b610d88610d6a6000610b3b565b610d72610133565b9182916322718ad960e21b835260048301610329565b0390fd5b610d9461142b565b610d9c610d9e565b565b610db0610dab6000610b3b565b611480565b565b610dba610d8c565b565b60018060a01b031690565b610dd3610dd891610cf3565b610dbc565b90565b610de59054610dc7565b90565b610df0610aa6565b50610dfb6007610ddb565b90565b610e0661096d565b50610e116001610a84565b90565b610e2891610e20611174565b919091611526565b565b91610e4e9391610e3c84828491610b7a565b610e44611174565b93909192936116f6565b565b90565b5190565b610e6b610e66610e7092610b19565b610b1c565b6102bf565b90565b610e7b610c5f565b90565b905090565b610ea8610e9f92602092610e9681610204565b94858093610e7e565b93849101610211565b0190565b610eba90610ec09392610e83565b90610e83565b90565b610ee29291610eee91610ed4610133565b948592602084019283610eac565b908103825203836106c5565b565b610f0290610efc61096d565b506110c3565b50610f0b61185e565b610f1c610f1782610e50565b610e53565b610f2f610f296000610e57565b916102bf565b11600014610f5557610f5190610f4b610f46611174565b611c11565b90610ec3565b5b90565b50610f5e610e73565b610f52565b90610f6d90610ccf565b600052602052604060002090565b90610f8590610ccf565b600052602052604060002090565b60ff1690565b610fa5610faa91610cf3565b610f93565b90565b610fb79054610f99565b90565b610fdf91610fd5610fda92610fcd6108f3565b506005610f63565b610f7b565b610fad565b90565b610ff390610fee61142b565b610ff5565b565b8061101161100b6110066000610b3b565b610310565b91610310565b146110215761101f90611480565b565b61104c61102e6000610b3b565b611036610133565b918291631e4fbdf760e01b835260048301610329565b0390fd5b61105990610fe2565b565b6110636108f3565b508061107e6110786380ac58cd60e01b610148565b91610148565b1480156110a2575b908115611092575b5090565b61109c9150611d97565b3861108e565b50806110bd6110b7635b5e139f60e01b610148565b91610148565b14611086565b6110cb610aa6565b506110d581611dbd565b90816110f26110ec6110e76000610b3b565b610310565b91610310565b146110fb575090565b61111d90611107610133565b918291637e27328960e01b835260048301610537565b0390fd5b61113561113061113a926102bf565b610b1c565b6102bf565b90565b9061114790611121565b600052602052604060002090565b61116c61117191611164610aa6565b50600461113d565b610ddb565b90565b61117c610aa6565b503390565b9161118f9291600192611ddc565b565b90565b6111a86111a36111ad92611191565b610b1c565b6102bf565b90565b906111bb91016102bf565b90565b60001b90565b906111d1600019916111be565b9181191691161790565b90565b906111f36111ee6111fa92611121565b6111db565b82546111c4565b9055565b6112289061122260006112116001611194565b92019161121d83610d10565b6111b0565b906111de565b565b600061123f91611238610ca2565b5001610d10565b90565b906112569190611250610c6c565b91611f2f565b565b9061126391036102bf565b90565b9061127760018060a01b03916111be565b9181191691161790565b90565b906112996112946112a092610ccf565b611281565b8254611266565b9055565b906112ad610aa6565b506112b781611dbd565b92806112d46112ce6112c96000610b3b565b610310565b91610310565b03611418575b50826112f76112f16112ec6000610b3b565b610310565b91610310565b036113c1575b8161131961131361130e6000610b3b565b610310565b91610310565b0361138b575b6113348261132f6002849061113d565b611284565b829161137261136c6113667fddf252ad1be2c89b69c2b068fc378daa952ba7f163c4a11628f55a4df523b3ef95610ccf565b92610ccf565b92611121565b9261137b610133565b80611385816103c6565b0390a490565b6113bc6113986001611194565b6113b66113a760038690610cdb565b916113b183610d10565b6111b0565b906111de565b61131f565b6113e26113ce6000610b3b565b826113d96000610b3b565b90600092611ddc565b6114136113ef6001611194565b61140d6113fe60038790610cdb565b9161140883610d10565b611258565b906111de565b6112fd565b6114259084908391611f82565b386112da565b611433610de8565b61144c611446611441611174565b610310565b91610310565b0361145357565b61147c61145e611174565b611466610133565b91829163118cdaa760e01b835260048301610329565b0390fd5b61148a6007610ddb565b611495826007611284565b906114c96114c37f8be0079c531659141344cd1fd0a4f28419497f9722a3daafe3b4186f6b6457e093610ccf565b91610ccf565b916114d2610133565b806114dc816103c6565b0390a3565b906114ed60ff916111be565b9181191691161790565b61150090610197565b90565b90565b9061151b611516611522926114f7565b611503565b82546114e1565b9055565b9190918261154561153f61153a6000610b3b565b610310565b91610310565b146115b9576115698261156461155d60058590610f63565b8690610f7b565b611506565b9190916115b46115a261159c7f17307eab39ab6107e8899845ad3d59bd9653f200f220920489ca2b5937696c3193610ccf565b93610ccf565b936115ab610133565b918291826101a9565b0390a3565b6115db836115c5610133565b918291630b61174360e31b835260048301610329565b0390fd5b6115e890610ca7565b90565b6115f4906115df565b90565b61160090610cc3565b90565b9050519061161082610154565b565b9060208282031261162c5761162991600001611603565b90565b61013e565b60209181520190565b6116596116626020936116679361165081610e53565b93848093611631565b95869101610211565b610236565b0190565b909261169f906116956116ac969461168b6080860197600087019061031c565b602085019061031c565b604083019061052a565b606081840391015261163a565b90565b906116c16116bc83610703565b6106ee565b918252565b606090565b3d6000146116e8576116dc3d6116af565b903d6000602084013e5b565b6116f06116c6565b906116e6565b9193843b61170d6117076000610e57565b916102bf565b1161171a575b5050505050565b611753600060209461175e6117366117318a6115eb565b6115f7565b9463150b7a02929698611747610133565b998a98899788966108fb565b86526004860161166b565b03925af1809160009261182e575b50156000146117e45750600161178857505b3880808080611713565b6117906116cb565b9061179a82610e53565b6117ad6117a76000610e57565b916102bf565b146000146117db576117d7906117c1610133565b918291633250574960e11b835260048301610329565b0390fd5b50805190602001fd5b6117fd6117f7630a85bd0160e11b610148565b91610148565b03611808575061177e565b61182a90611814610133565b918291633250574960e11b835260048301610329565b0390fd5b61185091925060203d8111611857575b61184881836106c5565b810190611612565b903861176c565b503d61183e565b61186661096d565b506118716009610a84565b90565b90565b61188b61188661189092611874565b610b1c565b6102bf565b90565b369037565b906118bd6118a5836116af565b926020806118b38693610703565b9201910390611893565b565b60016118cb91016102bf565b90565b90565b6118e56118e06118ea926118ce565b610b1c565b6102bf565b90565b6118f690610ca7565b90565b61190d61190861191292610305565b610b1c565b6102bf565b90565b90565b61192c61192761193192611915565b610b1c565b6102bf565b90565b634e487b7160e01b600052601160045260246000fd5b61195961195f919392936102bf565b926102bf565b820391821161196a57565b611934565b90565b61198661198161198b9261196f565b610b1c565b6102bf565b90565b61199d6119a3919392936102bf565b926102bf565b916119af8382026102bf565b9281840414901517156119be57565b611934565b90565b6119da6119d56119df926119c3565b610b1c565b6102bf565b90565b6119eb906102bf565b60ff81116119f95760020a90565b611934565b634e487b7160e01b600052601260045260246000fd5b611a20611a26916102bf565b916102bf565b908115611a31570490565b6119fe565b60ff1690565b611a50611a4b611a55926102bf565b610b1c565b611a36565b90565b60ff60f81b1690565b60f81b90565b611a7b611a76611a8092611a36565b611a61565b611a58565b90565b60f81c90565b611a9d611a98611aa292611a36565b610b1c565b611a36565b90565b611ab1611ab691611a83565b611a89565b90565b90565b611ad0611acb611ad592611ab9565b610b1c565b611a36565b90565b611ae4611aea91611a36565b91611a36565b908115611af5570490565b6119fe565b611b06611b0c91611a36565b91611a36565b0290611b1782611a36565b918203611b2057565b611934565b611b31611b3791611a36565b91611a36565b90039060ff8211611b4457565b611934565b634e487b7160e01b600052603260045260246000fd5b90611b6982610e53565b811015611b7b57600160209102010190565b611b49565b611b8f611b95919392936102bf565b926102bf565b8201809211611ba057565b611934565b90565b7f30780000000000000000000000000000000000000000000000000000000000009052565b906002611be492611bdd81611ba8565b0190610e83565b90565b90611c0f611bf3610133565b8093611c03602083019182611bcd565b908103825203836106c5565b565b90611c1a61096d565b50611c2d611c286028611877565b611898565b611c376000610e57565b5b80611c4c611c4660146118d1565b916102bf565b1015611d7f57611d7a90611d3e611cb2611cad611ca8611c73611c6e8a6118ed565b6118f9565b611ca2611c9d6008611c98611c926013611c8d8c91611918565b61194a565b91611972565b61198e565b6119e2565b90611a14565b611a3c565b611a67565b611d15611d0f611d0a611ce8611ce2611cdd611ccd87611aa5565b611cd76010611abc565b90611ad8565b611a67565b94611aa5565b611d046010611cff611cf988611aa5565b91611abc565b611afa565b90611b25565b611a67565b91612093565b611d388691611d2e6002611d2988916119c6565b61198e565b9060001a92611b5f565b53612093565b611d748491611d6a611d5a6002611d5587916119c6565b61198e565b611d646001611194565b90611b80565b9060001a92611b5f565b536118bf565b611c38565b50611d94919250611d8f90611ba5565b611be7565b90565b611d9f6108f3565b50611db9611db36301ffc9a760e01b610148565b91610148565b1490565b611dd4611dd991611dcc610aa6565b50600261113d565b610ddb565b90565b919092808015611f0b575b611e05575b505090611dfe611e039291600461113d565b611284565b565b611e0e846110c3565b9180611e2b611e25611e206000610b3b565b610310565b91610310565b141580611ef0575b80611ed6575b611eb0575091611dfe91611e039493611e55575b509192611dec565b818490611e94611e8e611e887f8c5be1e5ebec7d5bd14f71427d1e84f3dd0314c0f7b2291e5b200ac8c7c3b92595610ccf565b92610ccf565b92611121565b92611e9d610133565b80611ea7816103c6565b0390a438611e4d565b611ed290611ebc610133565b91829163a9fbf51f60e01b835260048301610329565b0390fd5b50611eeb611ee5848390610fba565b15610197565b611e39565b5082611f04611efe83610310565b91610310565b1415611e33565b5081611f28611f22611f1d6000610b3b565b610310565b91610310565b1415611de7565b9091611f5c92611f4083829061210e565b611f48611174565b92611f536000610b3b565b909192936116f6565b565b916020611f80929493611f796040820196600083019061031c565b019061052a565b565b611f97611f91828486916121c5565b15610197565b611fa057505050565b611fbb611fb5611fb06000610b3b565b610310565b91610310565b14600014611fe957611fe582611fcf610133565b918291637e27328960e01b835260048301610537565b0390fd5b61200a611ff4610133565b92839263177e802f60e01b845260048401611f5e565b0390fd5b600090565b90565b61202a61202561202f92612013565b610b1c565b611a36565b90565b90565b61204961204461204e92612032565b610b1c565b611a36565b90565b61205d61206391611a36565b91611a36565b019060ff821161206f57565b611934565b90565b61208b61208661209092612074565b610b1c565b611a36565b90565b61209b61200e565b506120a581611aa5565b6120b86120b2600a612016565b91611a36565b106000146120e7576120df6120cf6120e492611aa5565b6120d96030612077565b90612051565b611a67565b90565b6121066120f661210b92611aa5565b6121006057612035565b90612051565b611a67565b90565b908161212b6121256121206000610b3b565b610310565b91610310565b1461219657612145919061213f6000610b3b565b916112a4565b61216061215a6121556000610b3b565b610310565b91610310565b0361216757565b6121926121746000610b3b565b61217c610133565b9182916339e3563760e11b835260048301610329565b0390fd5b6121c16121a36000610b3b565b6121ab610133565b918291633250574960e11b835260048301610329565b0390fd5b91906121cf6108f3565b50806121ec6121e66121e16000610b3b565b610310565b91610310565b141592836121fb575b50505090565b809192935061221261220c84610310565b91610310565b14908115612254575b5091821561222e575b50503880806121f5565b61224c91925061224061224691611155565b92610310565b91610310565b143880612224565b61226091508290610fba565b3861221b56fea26469706673582212204f4445fef695ac8ca55fb5e4f5c3ca3dce40073f765ddfb149fa695ed0f5d5ad64736f6c63430008180033",
  "linkReferences": {},
  "deployedLinkReferences": {}
}